:020000040800F2
:10000000002800202D0B0008D10A0008D70A00089C
:10001000DD0A0008E30A0008E90A00080000000001
:10002000000000000000000000000000EF0A0008CF
:10003000FB0A000800000000070B0008130B000873
:10004000750B0008750B0008750B0008750B000890
:10005000750B0008750B0008750B0008750B000880
:10006000750B0008750B0008750B0008750B000870
:10007000750B0008750B0008750B0008750B000860
:10008000750B0008750B0008750B0008750B000850
:10009000750B0008750B0008750B0008750B000840
:1000A000750B0008750B0008750B0008750B000830
:1000B000750B0008750B000800000000750B0008A8
:1000C000750B00080000000000000000750B000820
:1000D00000000000750B0008750B00080000000010
:1000E000750B0008750B0008750B00080000000078
:1000F0000000000000000000000000000000000000
:0C01000000000000000000005FF808F1A3
:10010C0010B5054C237833B9044B13B10448AFF345
:10011C0000800123237010BD0C00002000000000A3
:10012C008819000808B5034B1BB103490348AFF30A
:10013C00008008BD00000000100000208819000895
:10014C0080B582B000AF78607B68092B00F28081AB
:10015C0001A252F823F000BF8D010008D501000860
:10016C001D02000865020008AD020008F502000837
:10017C003D03000885030008CD03000815040008A2
:10018C0000220121B54800F0D7FF00220221B3481C
:10019C0000F0D2FF00220421B04800F0CDFF002275
:1001AC000821AE4800F0C8FF00221021AB4800F037
:1001BC00C3FF00222021A94800F0BEFF01224021EC
:1001CC00A64800F0B9FF44E101220121A34800F048
:1001DC00B3FF00220221A14800F0AEFF002204214F
:1001EC009E4800F0A9FF012208219C4800F0A4FFC2
:1001FC0001221021994800F09FFF012220219748ED
:10020C0000F09AFF01224021944800F095FF20E174
:10021C0000220121914800F08FFF002202218F481B
:10022C0000F08AFF012204218C4800F085FF002297
:10023C0008218A4800F080FF00221021874800F036
:10024C007BFF01222021854800F076FF002240210F
:10025C00824800F071FFFCE0002201217F4800F091
:10026C006BFF002202217D4800F066FF0022042172
:10027C007A4800F061FF00220821784800F05CFF0A
:10028C0001221021754800F057FF012220217348EC
:10029C0000F052FF00224021704800F04DFFD8E0E2
:1002AC00012201216D4800F047FF002202216B481A
:1002BC0000F042FF00220421684800F03DFF0122BB
:1002CC000821664800F038FF01221021634800F035
:1002DC0033FF00222021614800F02EFF0022402134
:1002EC005E4800F029FFB4E0002201215B4800F0D9
:1002FC0023FF01220221594800F01EFF0022042195
:10030C00564800F019FF00220821544800F014FF51
:10031C0001221021514800F00FFF002220214F48EC
:10032C0000F00AFF002240214C4800F005FF90E04D
:10033C0000220121494800F0FFFE0122022147481A
:10034C0000F0FAFE00220421444800F0F5FE0022E1
:10035C000821424800F0F0FE002210213F4800F036
:10036C00EBFE002220213D4800F0E6FE0022402159
:10037C003A4800F0E1FE6CE000220121374800F021
:10038C00DBFE00220221354800F0D6FE00220421BB
:10039C00324800F0D1FE01220821304800F0CCFE9A
:1003AC00012210212D4800F0C7FE012220212B48EC
:1003BC0000F0C2FE01224021284800F0BDFE48E0BA
:1003CC0000220121254800F0B7FE0022022123481B
:1003DC0000F0B2FE00220421204800F0ADFE002205
:1003EC0008211E4800F0A8FE002210211B4800F036
:1003FC00A3FE00222021194800F09EFE002240217D
:10040C00164800F099FE24E000220121134800F068
:10041C0093FE00220221114800F08EFE00220421DE
:10042C000E4800F089FE002208210C4800F084FEE2
:10043C0001221021094800F07FFE002220210748EC
:10044C0000F07AFE00224021044800F075FE00E026
:10045C0000BF00BF0837BD4680BD00BF000C014087
:10046C0080B582B000AF78607B68092B00F2BC814C
:10047C0001A252F823F000BFAD04000801050008EA
:10048C0055050008A9050008FD05000851060008DF
:10049C00A5060008F90600084D070008A10700088A
:1004AC0000228021D34800F047FE00224FF48071D7
:1004BC00D04800F041FE00224FF40071CD4800F00E
:1004CC003BFE00224FF48061CA4800F035FE00224A
:1004DC004FF40061C74800F02FFE00224FF480510A
:1004EC00C44800F029FE01224FF40051C14800F02D
:1004FC0023FE7AE101228021BE4800F01DFE00227D
:10050C004FF48071BB4800F017FE00224FF40071CD
:10051C00B84800F011FE01224FF48061B54800F09C
:10052C000BFE01224FF40061B24800F005FE0122DF
:10053C004FF48051AF4800F0FFFD01224FF4005101
:10054C00AC4800F0F9FD50E100228021A94800F0F0
:10055C00F3FD00224FF48071A64800F0EDFD01225E
:10056C004FF40071A34800F0E7FD00224FF48061C6
:10057C00A04800F0E1FD00224FF400619D4800F01E
:10058C00DBFD01224FF480519A4800F0D5FD00228A
:10059C004FF40051974800F0CFFD26E10022802156
:1005AC00944800F0C9FD00224FF48071914800F08E
:1005BC00C3FD00224FF400718E4800F0BDFD0022F7
:1005CC004FF480618B4800F0B7FD01224FF40061BD
:1005DC00884800F0B1FD01224FF48051854800F0AD
:1005EC00ABFD00224FF40051824800F0A5FDFCE069
:1005FC00012280217F4800F09FFD00224FF4807182
:10060C007C4800F099FD00224FF40071794800F00D
:10061C0093FD01224FF48061764800F08DFD01229C
:10062C004FF40061734800F087FD00224FF48051B5
:10063C00704800F081FD00224FF400516D4800F02D
:10064C007BFDD2E0002280216A4800F075FD01227A
:10065C004FF48071674800F06FFD00224FF4007179
:10066C00644800F069FD00224FF48061614800F09D
:10067C0063FD01224FF400615E4800F05DFD002235
:10068C004FF480515B4800F057FD00224FF40051AD
:10069C00584800F051FDA8E000228021554800F098
:1006AC004BFD01224FF48071524800F045FD0022B1
:1006BC004FF400714F4800F03FFD00224FF4806171
:1006CC004C4800F039FD00224FF40061494800F01D
:1006DC0033FD00224FF48051464800F02DFD0022DE
:1006EC004FF40051434800F027FD7EE000228021AA
:1006FC00404800F021FD00224FF480713D4800F08D
:10070C001BFD00224FF400713A4800F015FD012248
:10071C004FF48061374800F00FFD01224FF4006167
:10072C00344800F009FD01224FF48051314800F0AB
:10073C0003FD01224FF400512E4800F0FDFC54E063
:10074C00002280212B4800F0F7FC00224FF480712E
:10075C00284800F0F1FC00224FF40071254800F00D
:10076C00EBFC00224FF48061224800F0E5FC0022F3
:10077C004FF400611F4800F0DFFC00224FF4805161
:10078C001C4800F0D9FC00224FF40051194800F02D
:10079C00D3FC2AE000228021164800F0CDFC002278
:1007AC004FF48071134800F0C7FC00224FF4007125
:1007BC00104800F0C1FC00224FF480610D4800F09D
:1007CC00BBFC01224FF400610A4800F0B5FC00228A
:1007DC004FF48051074800F0AFFC00224FF4005159
:1007EC00044800F0A9FC00E000BF00BF0837BD467C
:1007FC0080BD00BF000C014080B582B000AF00F09E
:10080C00B5F900F0A7F800F0E1F800237B607B68F5
:10081C0001337B607B68052B43DC7B68C3F10503EC
:10082C001846FFF78DFC00220421494800F084FC97
:10083C0001220821464800F07FFC01221021444887
:10084C0000F07AFC7B68022B15DC7B68C3F1020399
:10085C001846FFF705FE012220213D4800F06CFCF4
:10086C00012240213A4800F067FC002280213848E0
:10087C0000F062FC61E07B68C3F105031846FFF7EA
:10088C00EFFD01222021324800F056FC00224021CD
:10089C002F4800F051FC012280212D4800F04CFC27
:1008AC004BE07B68072B2ADC7B68C3F107031846F7
:1008BC00FFF746FC01220421254800F03DFC0122F3
:1008CC000821234800F038FC00221021204800F0B9
:1008DC0033FC7B68C3F10A031846FFF7C1FD002205
:1008EC0020211B4800F028FC01224021184800F070
:1008FC0023FC01228021164800F01EFC1DE07B68C1
:10090C000A2B1ADC7B68C3F10A031846FFF718FCA4
:10091C00012204210E4800F00FFC002208210C4893
:10092C0000F00AFC01221021094800F005FC7B684C
:10093C00C3F10A031846FFF793FD7B68092B01DD11
:10094C0000237B604FF47A7000F072F95FE700BF10
:10095C000008014080B590B000AF07F118032822C1
:10096C000021184600F0DEFF3B1D00221A605A6081
:10097C009A60DA601A610223BB610123BB62102307
:10098C00FB6200237B6307F11803184600F0ECFBB5
:10099C000346002B01D000F06DF80F237B60002381
:1009AC00BB600023FB6000233B6100237B613B1D8C
:1009BC000021184600F05AFE0346002B01D000F02F
:1009CC0059F800BF4037BD4680BD000080B586B0E9
:1009DC0000AF07F1080300221A605A609A60DA60CF
:1009EC00214B9B69204A43F0040393611E4B9B6986
:1009FC0003F004037B607B681B4B9B691A4A43F032
:100A0C0008039361184B9B6903F008033B603B6838
:100A1C000022FC21154800F08FFB002243F6FF71E9
:100A2C00134800F089FBFC23BB600123FB6000230F
:100A3C003B6102237B6107F1080319460B4800F068
:100A4C00FFF943F6FF73BB600123FB6000233B619E
:100A5C0002237B6107F108031946054800F0F0F901
:100A6C0000BF1837BD4680BD001002400008014091
:100A7C00000C014080B400AF72B600BFFEE700006E
:100A8C0080B483B000AF0E4B9B690D4A43F0010359
:100A9C0093610B4B9B6903F001037B607B68084BF4
:100AAC00DB69074A43F08053D361054BDB6903F0E4
:100ABC0080533B603B6800BF0C37BD4680BC704721
:100ACC000010024080B400AFFEE780B400AFFEE738
:100ADC0080B400AFFEE780B400AFFEE780B400AF97
:100AEC00FEE780B400AF00BFBD4680BC704780B449
:100AFC0000AF00BFBD4680BC704780B400AF00BFE4
:100B0C00BD4680BC704780B500AF00F075F800BFE3
:100B1C0080BD80B400AF00BFBD4680BC70470000F4
:100B2C00FFF7F7FF0B480C490C4A002302E0D4589E
:100B3C00C4500433C4188C42F9D3094A094C00231D
:100B4C0001E013600432A242FBD300F0F3FEFFF786
:100B5C0053FE7047000000200C000020CC19000848
:100B6C000C0000202C000020FEE7000080B500AF38
:100B7C00084B1B68074A43F010031360032000F076
:100B8C002BF90F2000F008F8FFF77AFF0023184626
:100B9C0080BD00BF0020024080B582B000AF7860FD
:100BAC00124B1A68124B1B7819464FF47A73B3FB2D
:100BBC00F1F3B2FBF3F3184600F035F90346002BC2
:100BCC0001D001230EE07B680F2B0AD80022796834
:100BDC004FF0FF3000F00BF9064A7B6813600023DE
:100BEC0000E0012318460837BD4680BD00000020F8
:100BFC00080000200400002080B400AF054B1B78D7
:100C0C001A46054B1B681344034A136000BFBD46CC
:100C1C0080BC7047080000202800002080B400AF82
:100C2C00024B1B681846BD4680BC7047280000204C
:100C3C0080B584B000AF7860FFF7F0FFB8607B68D8
:100C4C00FB60FB68B3F1FF3F05D00A4B1B781A46DB
:100C5C00FB681344FB6000BFFFF7E0FF0246BB6874
:100C6C00D31AFA689A42F7D800BF00BF1037BD46B6
:100C7C0080BD00BF0800002080B485B000AF786054
:100C8C007B6803F00703FB600C4BDB68BB60BA6846
:100C9C004FF6FF031340BB60FB681A02BB6813439B
:100CAC0043F0BF6343F40033BB60044ABB68D360BA
:100CBC0000BF1437BD4680BC704700BF00ED00E09C
:100CCC0080B400AF044BDB681B0A03F00703184623
:100CDC00BD4680BC704700BF00ED00E080B483B01F
:100CEC0000AF03463960FB7197F90730002B0ADB24
:100CFC003B68DAB20C4997F907301201D2B20B44B7
:100D0C0083F800230AE03B68DAB20849FB7903F068
:100D1C000F03043B1201D2B20B441A7600BF0C37FE
:100D2C00BD4680BC704700BF00E100E000ED00E074
:100D3C0080B489B000AFF860B9607A60FB6803F0EA
:100D4C000703FB61FB69C3F10703042B28BF0423D2
:100D5C00BB61FB690433062B02D9FB69033B00E042
:100D6C0000237B614FF0FF32BB6902FA03F3DA43D5
:100D7C00BB681A407B699A404FF0FF317B6901FADE
:100D8C0003F3D9437B680B40134318462437BD4605
:100D9C0080BC704780B582B000AF78607B68013B47
:100DAC00B3F1807F01D301230FE00A4A7B68013B3A
:100DBC0053600F214FF0FF30FFF790FF054B0022DF
:100DCC009A60044B07221A60002318460837BD4668
:100DDC0080BD00BF10E000E080B582B000AF78604D
:100DEC007868FFF749FF00BF0837BD4680BD80B566
:100DFC0086B000AF0346B9607A60FB7300237B6159
:100E0C00FFF75EFF78617A68B9687869FFF790FF41
:100E1C00024697F90F3011461846FFF75FFF00BFE7
:100E2C001837BD4680BD80B582B000AF7860786859
:100E3C00FFF7B0FF034618460837BD4680BD0000DB
:100E4C0080B48BB000AF7860396000237B620023E4
:100E5C003B6261E101227B6A02FA03F3FB613B68AE
:100E6C001B68FA691340BB61BA69FB699A4240F08E
:100E7C0050813B685B68974A93425ED0954A934297
:100E8C0075D8954A934258D0934A93426FD8934A57
:100E9C00934252D0914A934269D8914A93424CD092
:100EAC008F4A934263D88F4A934246D08D4A9342DD
:100EBC005DD8122B2AD8122B59D801A252F823F044
:100ECC00470F0008210F0008330F0008750F0008AA
:100EDC007B0F00087B0F00087B0F00087B0F0008BE
:100EEC007B0F00087B0F00087B0F00087B0F0008AE
:100EFC007B0F00087B0F00087B0F00087B0F00089E
:100F0C007B0F0008290F00083D0F0008764A93421A
:100F1C0013D02CE03B68DB683B6229E03B68DB6864
:100F2C0004333B6224E03B68DB6808333B621FE020
:100F3C003B68DB680C333B621AE03B689B68002B18
:100F4C0002D104233B6213E03B689B68012B05D163
:100F5C0008233B627B68FA691A6109E008233B624B
:100F6C007B68FA695A6103E000233B6200E000BF32
:100F7C00BB69FF2B01D87B6801E07B6804337B6184
:100F8C00BB69FF2B02D87B6A9B0002E07B6A083BA3
:100F9C009B003B617B691A680F213B6901FA03F3E3
:100FAC00DB431A40396A3B6901FA03F31A437B6944
:100FBC001A603B685B6803F08053002B00F0A9803B
:100FCC004A4B9B69494A43F001039361474B9B6928
:100FDC0003F00103BB60BB68454A7B6A9B08023384
:100FEC0052F82330FB607B6A03F003039B000F2253
:100FFC0002FA03F3DB43FA681340FB607B683D4A5B
:10100C0093420DD07B683C4A934207D07B683B4AA5
:10101C00934201D1022304E0032302E0012300E008
:10102C0000237A6A02F0030292009340FA68134399
:10103C00FB602F497B6A9B080233FA6841F8232036
:10104C003B685B6803F48013002B06D02C4B9A682A
:10105C002B49BB6913438B6006E0294B9A68BB692B
:10106C00DB43274913408B603B685B6803F4001338
:10107C00002B06D0224BDA682149BB691343CB60A5
:10108C0006E01F4BDA68BB69DB431D491340CB609C
:10109C003B685B6803F40033002B06D0184B5A688E
:1010AC001749BB6913434B6006E0154B5A68BB6983
:1010BC00DB43134913404B603B685B6803F480339C
:1010CC00002B1FD00E4B1A680D49BB6913430B60E4
:1010DC001FE000BF00003210000031100000221091
:1010EC00000021100000121000001110001002402E
:1010FC000000014000080140000C014000100140BC
:10110C00000401400B4B1A68BB69DB4309491340CF
:10111C000B607B6A01337B623B681A687B6A22FA3C
:10112C0003F3002B7FF496AE00BF00BF2C37BD46F7
:10113C0080BC70470004014080B483B000AF78607D
:10114C000B467B8013467B707B78002B03D07A8810
:10115C007B681A6103E07B881A047B681A6100BF04
:10116C000C37BD4680BC704780B586B000AF786048
:10117C007B68002B01D1012372E27B681B6803F0B2
:10118C000103002B00F08780924B5B6803F00C038B
:10119C00042B0CD08F4B5B6803F00C03082B12D183
:1011AC008C4B5B6803F48033B3F5803F0BD1894BD8
:1011BC001B6803F40033002B6CD07B685B68002B3E
:1011CC0068D101234CE27B685B68B3F5803F06D1A4
:1011DC00804B1B687F4A43F4803313602EE07B689E
:1011EC005B68002B0CD17B4B1B687A4A23F4803351
:1011FC001360784B1B68774A23F4802313601DE03F
:10120C007B685B68B3F5A02F0CD1724B1B68714ADD
:10121C0043F4802313606F4B1B686E4A43F4803396
:10122C0013600BE06B4B1B686A4A23F4803313602A
:10123C00684B1B68674A23F4802313607B685B68E8
:10124C00002B13D0FFF7EAFC386108E0FFF7E6FC4F
:10125C0002463B69D31A642B01D9032300E25D4B90
:10126C001B6803F40033002BF0D014E0FFF7D6FC1E
:10127C00386108E0FFF7D2FC02463B69D31A642BB5
:10128C0001D90323ECE1534B1B6803F40033002B0F
:10129C00F0D100E000BF7B681B6803F00203002B59
:1012AC0063D04C4B5B6803F00C03002B0BD0494B09
:1012BC005B6803F00C03082B1CD1464B5B6803F4F2
:1012CC008033002B16D1434B1B6803F00203002B19
:1012DC0005D07B681B69012B01D00123C0E13D4B7C
:1012EC001B6823F0F8027B685B69DB003949134308
:1012FC000B603AE07B681B69002B20D0364B012237
:10130C001A60FFF78BFC386108E0FFF787FC024698
:10131C003B69D31A022B01D90323A1E12D4B1B6886
:10132C0003F00203002BF0D02A4B1B6823F0F802C9
:10133C007B685B69DB00274913430B6015E0264B88
:10134C0000221A60FFF76AFC386108E0FFF766FCC0
:10135C0002463B69D31A022B01D9032380E11D4BB2
:10136C001B6803F00203002BF0D17B681B6803F0B1
:10137C000803002B3AD07B689B69002B19D0174BC4
:10138C0001221A60FFF74AFC386108E0FFF746FCBF
:10139C0002463B69D31A022B01D9032360E10D4BA2
:1013AC005B6A03F00203002BF0D0012000F09CFAE2
:1013BC001CE00A4B00221A60FFF730FC38610FE08A
:1013CC00FFF72CFC02463B69D31A022B08D90323E6
:1013DC0046E100BF0010024000004242800442423D
:1013EC00924B5B6A03F00203002BE9D17B681B680C
:1013FC0003F00403002B00F0A6800023FB758B4B3D
:10140C00DB6903F08053002B0DD1884BDB69874AD5
:10141C0043F08053D361854BDB6903F08053BB6091
:10142C00BB680123FB75824B1B6803F48073002B94
:10143C0018D17F4B1B687E4A43F480731360FFF70F
:10144C00EDFB386108E0FFF7E9FB02463B69D31A74
:10145C00642B01D9032303E1754B1B6803F48073E0
:10146C00002BF0D07B68DB68012B06D16F4B1B6A1D
:10147C006E4A43F0010313622DE07B68DB68002B9E
:10148C000CD16A4B1B6A694A23F001031362674B48
:10149C001B6A664A23F0040313621CE07B68DB685A
:1014AC00052B0CD1614B1B6A604A43F00403136299
:1014BC005E4B1B6A5D4A43F0010313620BE05B4B0E
:1014CC001B6A5A4A23F001031362584B1B6A574A92
:1014DC0023F0040313627B68DB68002B15D0FFF745
:1014EC009DFB38610AE0FFF799FB02463B69D31A72
:1014FC0041F28832934201D90323B1E04B4B1B6A72
:10150C0003F00203002BEED014E0FFF787FB3861E9
:10151C000AE0FFF783FB02463B69D31A41F288329B
:10152C00934201D903239BE0404B1B6A03F0020357
:10153C00002BEED1FB7D012B05D13C4BDB693B4AEB
:10154C0023F08053D3617B68DB69002B00F087802C
:10155C00364B5B6803F00C03082B61D07B68DB69AE
:10156C00022B46D1334B00221A60FFF757FB386130
:10157C0008E0FFF753FB02463B69D31A022B01D953
:10158C0003236DE0294B1B6803F00073002BF0D193
:10159C007B681B6AB3F5803F08D1244B5B6823F44E
:1015AC0000327B689B68214913434B601F4B5B687F
:1015BC0023F474127B68196A7B685B6A0B431B49C2
:1015CC0013434B601B4B01221A60FFF727FB38615A
:1015DC0008E0FFF723FB02463B69D31A022B01D923
:1015EC0003233DE0114B1B6803F00073002BF0D07C
:1015FC0035E0104B00221A60FFF710FB386108E051
:10160C00FFF70CFB02463B69D31A022B01D90323CB
:10161C0026E0064B1B6803F00073002BF0D11EE094
:10162C007B68DB69012B07D1012319E00010024014
:10163C0000700040600042420B4B5B68FB60FB6833
:10164C0003F480327B681B6A9A4206D1FB6803F470
:10165C0070127B685B6A9A4201D0012300E0002380
:10166C0018461837BD4680BD0010024080B584B0C6
:10167C0000AF786039607B68002B01D10123D0E08A
:10168C006A4B1B6803F007033A689A4210D9674B00
:10169C001B6823F0070265493B6813430B60634BDF
:1016AC001B6803F007033A689A4201D00123B8E0A3
:1016BC007B681B6803F00203002B20D07B681B683F
:1016CC0003F00403002B05D0594B5B68584A43F4D4
:1016DC00E06353607B681B6803F00803002B05D0A4
:1016EC00534B5B68524A43F460535360504B5B68F6
:1016FC0023F0F0027B689B684D4913434B607B6879
:10170C001B6803F00103002B40D07B685B68012B46
:10171C0007D1474B1B6803F40033002B15D1012371
:10172C007FE07B685B68022B07D1414B1B6803F0A1
:10173C000073002B09D1012373E03D4B1B6803F0B0
:10174C000203002B01D101236BE0394B5B6823F0C2
:10175C0003027B685B68364913434B60FFF75EFA04
:10176C00F8600AE0FFF75AFA0246FB68D31A41F216
:10177C008832934201D9032353E02D4B5B6803F06D
:10178C000C027B685B689B009A42EBD1274B1B6871
:10179C0003F007033A689A4210D2244B1B6823F0DB
:1017AC00070222493B6813430B60204B1B6803F074
:1017BC0007033A689A4201D0012332E07B681B6828
:1017CC0003F00403002B08D0194B5B6823F4E06290
:1017DC007B68DB68164913434B607B681B6803F01E
:1017EC000803002B09D0124B5B6823F460527B6812
:1017FC001B69DB000E4913434B6000F021F80246D5
:10180C000B4B5B681B0903F00F030A49CB5C22FAF4
:10181C0003F3094A1360094B1B681846FFF7BCF920
:10182C00002318461037BD4680BD00BF0020024083
:10183C0000100240A0190008000000200400002045
:10184C0080B487B000AF0023FB600023BB60002393
:10185C007B6100237B6000233B611E4B5B68FB605C
:10186C00FB6803F00C03042B02D0082B03D027E0F9
:10187C00194B3B6127E0FB689B0C03F00F03174AE5
:10188C00D35C7B60FB6803F48033002B10D0114BCE
:10189C005B685B0C03F00103114AD35CBB607B6893
:1018AC000D4A03FB02F2BB68B2FBF3F37B6104E06D
:1018BC007B680C4A02FB03F37B617B693B6102E0B2
:1018CC00054B3B6100BF3B6918461C37BD4680BCCD
:1018DC00704700BF0010024000127A00B0190008D7
:1018EC00C019000800093D0080B485B000AF7860D5
:1018FC000A4B1B680A4AA2FB03235B0A7A6802FBA9
:10190C0003F3FB6000BFFB685A1EFA60002BF9D191
:10191C0000BF00BF1437BD4680BC704700000020DC
:10192C00D34D621003460244934200D1704703F832
:10193C00011BF9E770B500260C4D0D4C641BA4106F
:10194C00A64209D100F01AF800260A4D0A4C641B75
:10195C00A410A64205D170BD55F8043B984701363A
:10196C00EEE755F8043B98470136F2E7C419000836
:10197C00C4190008C4190008C8190008F8B500BF3C
:10198C00F8BC08BC9E467047F8B500BFF8BC08BC54
:04199C009E467047AC
:1019A000000000000000000001020304060708090F
:1019B00002030405060708090A0B0C0D0E0F101090
:0419C0000102000020
:0419C40031010008E5
:0419C8000D01000805
:0C19CC000024F4001000000001000000E6
:0400000508000B2DB7
:00000001FF
